{
  "contractName": "GreatestShow",
  "abi": [
    {
      "constant": true,
      "inputs": [],
      "name": "owner",
      "outputs": [
        {
          "name": "",
          "type": "address"
        }
      ],
      "payable": false,
      "stateMutability": "view",
      "type": "function"
    },
    {
      "constant": true,
      "inputs": [],
      "name": "ringMaster",
      "outputs": [
        {
          "name": "",
          "type": "string"
        }
      ],
      "payable": false,
      "stateMutability": "view",
      "type": "function"
    },
    {
      "inputs": [
        {
          "name": "_ringMaster",
          "type": "string"
        }
      ],
      "payable": false,
      "stateMutability": "nonpayable",
      "type": "constructor"
    },
    {
      "payable": true,
      "stateMutability": "payable",
      "type": "fallback"
    },
    {
      "constant": false,
      "inputs": [
        {
          "name": "_availableSeats",
          "type": "uint256"
        }
      ],
      "name": "setAvailableSeats",
      "outputs": [],
      "payable": false,
      "stateMutability": "nonpayable",
      "type": "function"
    },
    {
      "constant": true,
      "inputs": [],
      "name": "getAvailableSeats",
      "outputs": [
        {
          "name": "",
          "type": "uint256"
        }
      ],
      "payable": false,
      "stateMutability": "view",
      "type": "function"
    },
    {
      "constant": false,
      "inputs": [
        {
          "name": "_name",
          "type": "string"
        },
        {
          "name": "_actors",
          "type": "uint32"
        },
        {
          "name": "_tigers",
          "type": "uint8"
        },
        {
          "name": "_bears",
          "type": "uint8"
        },
        {
          "name": "_elephants",
          "type": "uint8"
        },
        {
          "name": "_timeInSeconds",
          "type": "uint16"
        },
        {
          "name": "_clearTheStageFirst",
          "type": "bool"
        }
      ],
      "name": "addPerformance",
      "outputs": [
        {
          "name": "",
          "type": "uint256"
        }
      ],
      "payable": false,
      "stateMutability": "nonpayable",
      "type": "function"
    },
    {
      "constant": true,
      "inputs": [
        {
          "name": "_index",
          "type": "uint256"
        }
      ],
      "name": "getPerformance",
      "outputs": [
        {
          "name": "",
          "type": "string"
        },
        {
          "name": "",
          "type": "uint32"
        },
        {
          "name": "",
          "type": "uint8"
        },
        {
          "name": "",
          "type": "uint8"
        },
        {
          "name": "",
          "type": "uint8"
        },
        {
          "name": "",
          "type": "uint16"
        },
        {
          "name": "",
          "type": "bool"
        }
      ],
      "payable": false,
      "stateMutability": "view",
      "type": "function"
    }
  ],
  "bytecode": "0x60806040526102bc6005556107d060065534801561001c57600080fd5b50604051610a8c380380610a8c83398101806040528101908080518201929190505050336000806101000a81548173ffffffffffffffffffffffffffffffffffffffff021916908373ffffffffffffffffffffffffffffffffffffffff160217905550806001908051906020019061009592919061009c565b5050610141565b828054600181600116156101000203166002900490600052602060002090601f016020900481019282601f106100dd57805160ff191683800117855561010b565b8280016001018555821561010b579182015b8281111561010a5782518255916020019190600101906100ef565b5b509050610118919061011c565b5090565b61013e91905b8082111561013a576000816000905550600101610122565b5090565b90565b61093c806101506000396000f300608060405260043610610078576000357c0100000000000000000000000000000000000000000000000000000000900463ffffffff16806320323763146101555780633ad0d8401461022357806347625694146102505780638da5cb5b1461034a578063906d895d146103a1578063acc23d93146103cc575b6000803491506100ba6006546100ac606461009e6005548761045c90919063ffffffff16565b61045c90919063ffffffff16565b61049490919063ffffffff16565b905061010e81600460003373ffffffffffffffffffffffffffffffffffffffff1673ffffffffffffffffffffffffffffffffffffffff168152602001908152602001600020546104aa90919063ffffffff16565b600460003373ffffffffffffffffffffffffffffffffffffffff1673ffffffffffffffffffffffffffffffffffffffff168152602001908152602001600020819055505050005b34801561016157600080fd5b5061020d600480360381019080803590602001908201803590602001908080601f0160208091040260200160405190810160405280939291908181526020018383808284378201915050505050509192919290803563ffffffff169060200190929190803560ff169060200190929190803560ff169060200190929190803560ff169060200190929190803561ffff1690602001909291908035151590602001909291905050506104c6565b6040518082815260200191505060405180910390f35b34801561022f57600080fd5b5061024e6004803603810190808035906020019092919050505061063e565b005b34801561025c57600080fd5b5061027b60048036038101908080359060200190929190505050610648565b60405180806020018863ffffffff1663ffffffff1681526020018760ff1660ff1681526020018660ff1660ff1681526020018560ff1660ff1681526020018461ffff1661ffff16815260200183151515158152602001828103825289818151815260200191508051906020019080838360005b838110156103095780820151818401526020810190506102ee565b50505050905090810190601f1680156103365780820380516001836020036101000a031916815260200191505b509850505050505050505060405180910390f35b34801561035657600080fd5b5061035f61079e565b604051808273ffffffffffffffffffffffffffffffffffffffff1673ffffffffffffffffffffffffffffffffffffffff16815260200191505060405180910390f35b3480156103ad57600080fd5b506103b66107c3565b6040518082815260200191505060405180910390f35b3480156103d857600080fd5b506103e16107cd565b6040518080602001828103825283818151815260200191508051906020019080838360005b83811015610421578082015181840152602081019050610406565b50505050905090810190601f16801561044e5780820380516001836020036101000a031916815260200191505b509250505060405180910390f35b60008083141561046f576000905061048e565b818302905081838281151561048057fe5b0414151561048a57fe5b8090505b92915050565b600081838115156104a157fe5b04905092915050565b600081830190508281101515156104bd57fe5b80905092915050565b6000600360e0604051908101604052808a81526020018963ffffffff1681526020018860ff1681526020018760ff1681526020018660ff1681526020018561ffff16815260200184151581525090806001815401808255809150509060018203906000526020600020906002020160009091929091909150600082015181600001908051906020019061055a92919061086b565b5060208201518160010160006101000a81548163ffffffff021916908363ffffffff16021790555060408201518160010160046101000a81548160ff021916908360ff16021790555060608201518160010160056101000a81548160ff021916908360ff16021790555060808201518160010160066101000a81548160ff021916908360ff16021790555060a08201518160010160076101000a81548161ffff021916908361ffff16021790555060c08201518160010160096101000a81548160ff0219169083151502179055505050506003805490509050979650505050505050565b8060028190555050565b6060600080600080600080600060038981548110151561066457fe5b90600052602060002090600202019050806000018160010160009054906101000a900463ffffffff168260010160049054906101000a900460ff168360010160059054906101000a900460ff168460010160069054906101000a900460ff168560010160079054906101000a900461ffff168660010160099054906101000a900460ff16868054600181600116156101000203166002900480601f01602080910402602001604051908101604052809291908181526020018280546001816001161561010002031660029004801561077d5780601f106107525761010080835404028352916020019161077d565b820191906000526020600020905b81548152906001019060200180831161076057829003601f168201915b50505050509650975097509750975097509750975050919395979092949650565b6000809054906101000a900473ffffffffffffffffffffffffffffffffffffffff1681565b6000600254905090565b60018054600181600116156101000203166002900480601f0160208091040260200160405190810160405280929190818152602001828054600181600116156101000203166002900480156108635780601f1061083857610100808354040283529160200191610863565b820191906000526020600020905b81548152906001019060200180831161084657829003601f168201915b505050505081565b828054600181600116156101000203166002900490600052602060002090601f016020900481019282601f106108ac57805160ff19168380011785556108da565b828001600101855582156108da579182015b828111156108d95782518255916020019190600101906108be565b5b5090506108e791906108eb565b5090565b61090d91905b808211156109095760008160009055506001016108f1565b5090565b905600a165627a7a723058209e0942496fd9ddda98680d0d282a302bd86b51031c257e6621d70df897b3da150029",
  "source": "pragma solidity ^0.4.23;\n\nimport 'zeppelin-solidity/contracts/math/SafeMath.sol';\n\ncontract GreatestShow {\n  \n  address public owner;\n  string public ringMaster;\n\n  constructor(string _ringMaster) public {\n    owner = msg.sender;\n    ringMaster = _ringMaster;\n  }\n\n  uint availableSeats;\n\n  function setAvailableSeats( uint _availableSeats ) public {\n      availableSeats = _availableSeats;\n  }\n  \n  function getAvailableSeats() view public returns(uint) {\n      return availableSeats;\n  }\n\n  struct Performance {\n    string name;\n\n    uint32 actors;\n\n    uint8 tigers;\n    uint8 bears;\n    uint8 elephants;\n\n    uint16 timeInSeconds;\n\n    bool clearTheStageFirst;\n  }\n\n  Performance[] performances;\n    \n  function addPerformance( \n              string _name,\n              uint32 _actors,                              \n              uint8 _tigers, \n              uint8 _bears,\n              uint8 _elephants, \n              uint16 _timeInSeconds,\n              bool _clearTheStageFirst ) public returns(uint) {\n\n      performances.push( \n          Performance( { name: _name, actors: _actors, \n              tigers: _tigers, bears: _bears, \n              elephants: _elephants,\n              timeInSeconds: _timeInSeconds,\n              clearTheStageFirst: _clearTheStageFirst } \n          ) \n      );\n\n      return performances.length;\n  }\n \n  function getPerformance( uint _index ) view public \n      returns (string, uint32, uint8, uint8, uint8, uint16, bool) {\n\n      Performance storage perf = performances[_index];\n      return (perf.name, perf.actors, perf.tigers, perf.bears, \n              perf.elephants, perf.timeInSeconds, perf.clearTheStageFirst); \n  }\n\n  mapping(address => uint256) internal tickets;\n\n  uint256 internal ethusd = 700; // peg to 700 dollars\n  uint256 internal rateInCents = 2000; // 2000 cents = $20.00\n\n  using SafeMath for uint256;\n\n  function () payable public {     \n     uint256 _wei = msg.value; // 1 Ether = 1000000000000000000\n     uint256 tickets4ETH = _wei.mul(ethusd).mul(100).div(rateInCents);\n     tickets[msg.sender] = tickets[msg.sender].add( tickets4ETH );     \n  }\n      \n}",
  "sourcePath": "/Users/demmons/sandbox/ComeOneComeAll/contracts/GreatestShow.sol",
  "compiler": {
    "name": "solc",
    "version": "0.4.23+commit.124ca40d.Emscripten.clang"
  },
  "schemaVersion": "2.0.0",
  "updatedAt": "2018-05-10T00:35:17.498Z"
}